:020000041000EA
:1000000000B5324B212058609868022188439860DF
:10001000D860186158612E4B002199600221596106
:100020000121F02299502B49196001219960352056
:1000300000F044F80222904214D00621196600F024
:1000400034F8196E01211966002018661A6600F04E
:100050002CF8196E196E196E052000F02FF8012189
:100060000842F9D1002199601B49196000215960AB
:100070001A491B48016001219960EB211966A021F2
:10008000196600F012F800219960164914480160C1
:100090000121996001BC002800D000471248134993
:1000A000086003C880F30888084703B5996A0420EC
:1000B0000142FBD001200142F8D103BD02B5186610
:1000C0001866FFF7F2FF186E186E02BD00000240BE
:1000D000000000180000070000035F00212200005C
:1000E000F4000018222000A00001001008ED00E03C
:1000F00000000000000000000000000074B24E7A12
:1001000000200420F7010010C3010010C5010010F9
:10011000C1010010C1010010C1010010C101001097
:10012000C1010010C1010010C1010010C701001081
:10013000C1010010C1010010C9010010CB01001065
:10014000CD010010CD010010CD010010CD01001037
:10015000CD010010CD010010CD010010CD01001027
:10016000CD010010CD010010CD010010CD01001017
:10017000CD010010CD010010CD010010CD01001007
:10018000CD010010CD010010CD010010CD010010F7
:10019000CD010010CD010010CD010010CD010010E7
:1001A000CD010010CD010010CD010010CD010010D7
:1001B000CD010010CD010010CD010010CD010010C7
:1001C00000BE00BE00BE00BE00BE00BE00F04BF888
:1001D000103800BEF2EB88712C2D0010502D00104D
:1001E0003402001090A31AE700202149086006C8D5
:1001F00081F3088810471F48006800282FD10DA4FC
:100200000ECC002902D000F012F8F9E71A491B4A77
:10021000002000E001C19142FCD1194988471949E9
:1002200088471949884700BEFDE701C901C29A42C3
:10023000FBD37047502D0010C00000207406002032
:1002400004330010000004200000042004330010D8
:1002500000100420001004200000000070470B482C
:1002600001F0D4FD0047EFF30580C0B270470000F5
:1002700008ED00E0000000D078060020640A0020AD
:10028000A91700103D0400109518001057560000E3
:1002900006005250ABB36053642C0010060052505D
:1002A000861C0302742C0010060052505422A29D9A
:1002B0007C2C001005005250DE65F46804330010F9
:1002C000F8B5C046044B10B5002B03D003490448D1
:1002D00000E000BF10BDC04600000000140A00206E
:1002E000A82B001030B5012400250C490A684B6882
:1002F00012196B410A604B60094A0A4913680133BD
:1003000013608B4206D9012007490B7843400B70DC
:10031000002313600222054B1A6030BDA0070020A5
:10032000A80900201FBF02005C0A002030202050D6
:10033000F0B51C00002385B0039380235B0200937B
:10034000C0231B030293D31D15001B03D2011343CB
:1003500001931C4B0F00C1184B1E9941060006313A
:10036000200000F031FA039B174AE40313401C43BA
:10037000029A164B0A981A4080231B0313430394D6
:10038000029302F063F884B20020002C0ED020000B
:1003900002F034F8011C0A9802F00FF88721C90511
:1003A00002F025F802F052F8C0B20002240404431F
:1003B0006B462A0039003000009402F0CBFA05B0F9
:1003C000F0BDC0460000E0AFFF7FF0FFFFFF00C0C0
:1003D000F0B5C64615009846002300B5043284B037
:1003E00003931203EB011A43802306001B034046CC
:1003F0000F000192029302F029F884B20020002C31
:100400000ED0200001F0FAFF011C404601F0D5FF9C
:100410008721C90501F0EBFF02F018F8C0B2000215
:10042000240404436B462A0039003000009402F093
:1004300091FA04B080BCB846F0BDC046F0B5D646CF
:100440004F464646C0B586B0364805AB04AA03A958
:1004500000F0B4F8002803D13348324901F01CFA07
:10046000D02480258026059A049903982F4F00F008
:1004700069F824061920AD04760200F0BDF9656222
:100480006662656102F066F90121380002F0CCF97C
:1004900027498146380002F0E5F9FE239B0502005A
:1004A00049469A46380000930023FFF741FF49462A
:1004B000012398468B403A68414613433B6038001D
:1004C00002F0B2F91B498146380002F0CBF95346DD
:1004D000020049463800FFF77BFF494643468B4000
:1004E0003A684146134380223B60134B92001A60E6
:1004F000082000F047FA0820104900F05DFA104B80
:100500001A78002A07D065611A78002A07D0666138
:100510001A78002AF7D1A5611A78002AF7D1A661C6
:10052000EEE7C04688070200A82B0010000020500C
:10053000F02B0010DC2B001038212050E5020010B9
:100540005C0A0020F0B583B005000E00140000F036
:10055000F7F9002801D003B0F0BD154F01223B0090
:1005600001210097053001F0B5F933002A0000940D
:100570000121104801F0B2FB21002800714301F075
:1005800077FC04000C4B002200930221042001F0B0
:10059000A1F92300002201210094052001F09AF91D
:1005A0003B00022200210097062001F093F9D2E7D8
:1005B000006CDC0200800240001BB700F0B5DE4694
:1005C00057464E464546E0B5070083B004209246A4
:1005D00089469B4601F07CFBFA21890001F048FC2A
:1005E0003223FF3300935346C846824686003618AE
:1005F000B6010193724B734AF318934208D95246DD
:10060000009BB61A013B0093002BF3D100206EE053
:100610003121300001F02CFC87426FD007256C1E81
:10062000A1464C466C433000210001F021FC87427A
:100630004AD0AB1E9946022D00D1B1E0641B2100C7
:10064000300001F015FC874266D0EB1E9946032D61
:1006500068D0641B2100300001F00AFC874269D099
:100660002B1F9946042D6BD0641B2100300001F034
:10067000FFFB87426FD06B1F9946052D00D171E0BB
:10068000641B2100300001F0F3FB874200D171E0D0
:10069000062D00D173E03000E11F01F0E9FBB84204
:1006A00000D177E0242130000625242401F0E0FB6E
:1006B000874225D0052399464C466C4330002100E3
:1006C00001F0D6FB8742B4D10029B2D1019B2C00A6
:1006D0009A464D46C1464B467201921B92009219B2
:1006E000D2001A6053461C605B4601201D6003B0B7
:1006F000F0BCBB46B246A946A046F0BD3124072552
:100700002100300001F0B4FB002900D087E7019BF5
:100710002C00C1469A46DEE70029D7D0EB1E994649
:10072000032D96D102250424B3089F42E8D001236B
:10073000994676E70029C9D02B1F9946042D93D1FD
:10074000092130000325092401F092FB8742D7D00C
:100750000223994665E70029B8D06B1F9946052DFD
:1007600000D08DE70425102433099F42C8D003230D
:10077000994656E70029A9D0062D00D08BE719210C
:1007800030000525192401F073FB8742B8D00423FB
:10079000994646E700290CD005230625994640E7EF
:1007A000B74200D02BE7019BC1469A4601240125A0
:1007B00091E7019BC1469A46072401258BE7C04675
:1007C000508EF4FF50F80C00094A10B594464024AE
:1007D000830063441A68C000624080341440802261
:1007E000520113431C60034B9C466044416010BDA2
:1007F00004C00140004001400123D0228340120682
:1008000093629361094A40219446830063441A68C5
:10081000C0004A40803111408022520113431960C8
:10082000034B9C46052360444360704704C001406D
:1008300000400140EFF3108072B6034A1368002BAA
:10084000FCD0BFF35F8F70472C0100D0BFF35F8FE8
:100850000022024B1A6080F3108870472C0100D0F0
:1008600070B5EFF3108C72B60D4D2B68002BFCD0D9
:10087000BFF35F8F0724CB08C618C05C01230C4070
:10088000A3401C000440034207D118433070BFF35B
:100890005F8F2C608CF3108870BD100000F0FCFF9F
:1008A0002C0100D0F8B54746CE46884680B5EFF318
:1008B000108C72B6214D2C68002CFCD0BFF35F8FDA
:1008C0009A422CD8D4080727055D06190124174041
:1008D000BC402C421FD007210127894609E0D408DB
:1008E000055D06194C4639001440A1400C00294210
:1008F00011D001329342F2D201204042BFF35F8F08
:1009000000220E4B1A608CF3108800280FDBC0BC4D
:10091000B946B046F8BD254310003570EEE7BFF389
:100920005F8F00232B608CF31088012040424346E8
:10093000002BECD0089800F0AFFFC0462C0100D08F
:10094000024B18688007C00F7047C04600C00640C1
:100950000021044B044ABFF35F8F02C39342FAD1D4
:100960007047C046000100D0800100D0044A1078D2
:10097000431CDBB2172B00D9102313707047C046FD
:100980007401002001238340002904D0034A13602E
:10099000034A13607047034A1360FBE780E200E0FC
:1009A00000E100E080E100E0024B10309B68800035
:1009B000C058704700ED00E070B50D00EFF31086F1
:1009C00072B60F4A1368002BFCD0BFF35F8F0D4B3C
:1009D00010309B6884001B590B4A934203D09D4200
:1009E00001D000F071FF074B9B681D51BFF35F8F73
:1009F000BFF35F8F0022024B1A6086F3108870BD30
:100A0000240100D000ED00E0CD010010F0B5DE467D
:100A100057464E464546E0B50C0083B0EFF3108ACA
:100A200072B6604A1368002BFCD0BFF35F8F1022B0
:100A3000914681444A465C4B96009B689D595B4BAE
:100A400098469D4205D0A54216D0594FEB1B2F2B3F
:100A500014D9554B9B689D51BFF35F8FBFF35F8FD8
:100A60000022504B1A608AF3108803B0F0BCBB46DA
:100A7000B246A946A046F0BD1D00EAE70123834027
:100A80009B465A464B4B1B681A4000925A464A4BAB
:100A90001A60BFF35F8FFFF7E6FB031E01901DD1C5
:100AA0002A0001339A439068844208D171E04B00D8
:100AB0005B189B00FB189868A04245D01A000621DD
:100AC00051560029F3DA84426AD0009B002B34D0BF
:100AD0005A463A4B1A60374B1A60BAE7814530D113
:100AE0002A0001239A4390688442E8D10621515696
:100AF0001300002940DB4A00501880003C18804653
:100B0000A0689860E079D871062020569871002876
:100B10002FDBA488F81A6405241544440019E02446
:100B20000005400D2402204398805318244A9B005E
:100B30001078FB1898711170C7E75A461E4B1A605F
:100B400087E700F0C1FECBE7062159560029D2DA2B
:100B50000199002910D1FF3191711A4991801849EA
:100B60000A789A71184ADB1B5B415A43120D0A70CE
:100B7000ABE7BD200002D7E7144A1549D21A083A5C
:100B80005002400D01439980124952080A43DA800D
:100B90009BE70621515613000029ACDA4546DEE7F3
:100BA0001300D5E7240100D000ED00E0CD010010D6
:100BB0007801002000E100E080E100E080E200E058
:100BC0005F0A002000BDFFFFAAAA0000B2010020BA
:100BD00000F0FFFF00F8FFFFF8B501250400054312
:100BE000FFF741FBEFF3108C72B6214A1368002B1C
:100BF000FCD0BFF35F8F1F4E2100B7681E4A1F4B0A
:100C0000891A49414B431B0D59B28300F858A84239
:100C10001CD00623D3568B421CD01223D3568B42B2
:100C200022D01E23D3568B4220D02A23D356032012
:100C30008B4210D0124B1A781970A271BFF35F8FDC
:100C400000220B4B1A608CF31088F8BDB2680D4877
:100C5000D050EFE7002043001B189B00D218FF2361
:100C60009371094B9380E5E70120F4E70220F2E756
:100C7000240100D000ED00E078010020AAAA0000C5
:100C80005F0A0020CD01001000BDFFFF054B064AA2
:100C90001360064A136053609360D360136153611D
:100CA000936170478080808000E400E004E400E00D
:100CB000024B9C466144890001607047400000344B
:100CC00083680B4810B584466144624412010901EF
:100CD00059189B185C684A680120944201D802D0D8
:100CE0000020C0B210BD1A680B689A42F9D8F7E725
:100CF000FFFFFF0FF8B5574645464E46DE46E0B5C6
:100D000098460CAB1C780DAB1B78070091469A46B1
:100D10000568002C5AD1AC7B002C3BD066002968BA
:100D20003619033E89194B78AB73002B00D1EB7356
:100D300000238B704B700B702B4BE218BB681201B9
:100D40009B184A461A6042465A600A9A9A600B9A61
:100D5000DA6000238B704B700B706B7B9B46002B13
:100D600027D022006B685946A86898475B465B000D
:100D70005B442A68033B002812D058469619B0708D
:100D8000D118D35C002B00D073705B460C706B7372
:100D90005C450FD0F0BCBB46B246A946A046F8BDA4
:100DA000D3189C709119925D002A00D05A705B464E
:100DB0000B706C734A464346387D00F0E3F9051E1C
:100DC0000AD10E9B002BE5D01D70E3E76600296871
:100DD0003619033E8919AFE75346002BF1D12100A4
:100DE000386800F019FCECE7FFFFFF0FF0B5DE46B6
:100DF00057464E4645460023E0B58DB00A936A4BF0
:100E00008200D75800239B460B9000F06BF902003C
:100E10000B007868EFF3108972B64D46016800291F
:100E2000FCD0A946BFF35F8F39684E7B8C46002EFD
:100E30002ED0BC685D49A246711809018A4451460A
:100E40000868496804000D00A41A9D41002D5EDD6C
:100E500002000B000B9800F095F9002300229A463F
:100E6000002308920993002398467B68BFF35F8FA5
:100E70005A461A6089F310884346002B12D1002885
:100E8000C3D10DB0F0BCBB46B246A946A046F0BDEA
:100E9000002300229A460023089209930023002091
:100EA0009846E2E70A9B514618023043C047069035
:100EB00007917A68EFF3108572B654461368002BD9
:100EC000FCD0A246BFF35F8F0699079A002A3BDB4E
:100ED000114302D03B69002B52D13B68D97B0029DA
:100EE00005D01A68480041185218033A5670DE734C
:100EF000FA68013E935D013393555B463B617B6825
:100F0000BFF35F8F5A461A6085F310887DE7002D86
:100F100001D1002C9CD10021604600F0E5FA534637
:100F20005C681B680893099453469B68984653462F
:100F3000DB689A46FB689B19013B1B780A931B02EE
:100F400003433B61002090E73B69002BC5D0089B21
:100F5000099C5B1A9441089809991A002300A14240
:100F600019D899421BD000210491013103915146B7
:100F700001914146380002960091FFF7BBFEBCE7A5
:100F800000F0B0F8069A079B12184B41994202D81C
:100F9000E9D19042E7D901225242D317E3E70899F9
:100FA0009142E0D9F7E7C0462C0A0020FFFFFF0F6F
:100FB00010B5124C6368002B04D00A211048FFF7CB
:100FC00077FE10BD23000F4A1021206800F092F92F
:100FD000032000F07BF8032000F042F903200A49C7
:100FE00000F08AF8FFF7C2FC084B9C4603236044DC
:100FF0002375074B80006060DC60DEE7C0010020E5
:10100000400A0020C10C0010ED0D0010400000341B
:101010002C0A0020F0B5D6464F464646C0B5EFF341
:1010200005823F23134018001038EFF3108C72B67E
:1010300020490A68002AFCD0BFF35F8F0122170005
:1010400087401D4C1600A24667631C4C2578A046BD
:101050002C00C4402640224215D05246566A184AF7
:101060008400A258964218D34246164BBD43E3581B
:101070001570BFF35F8F00220A608CF31088002B7D
:1010800006D0984704E0BFF35F8F0E608CF31088A2
:10109000E0BCBA46B146A846F0BD0B4A9B0090465C
:1010A00043441A681A60BFF35F8F00230B608CF310
:1010B0001088EDE7280100D000400540600A0020BC
:1010C000440A0020B8090020D03F054010B5034B6A
:1010D00001001800024AFFF7C3FB10BD5D0A0020A3
:1010E000082C0010034B596A0A00986A596A8A4210
:1010F000FAD170470040054070B504000D00EFF3D1
:10110000108672B61A4A1368002BFCD0BFF35F8FAB
:10111000002D1BD02000FFF747FC164981420AD062
:101120002000FFF749FC01212000FFF72BFC0123E1
:10113000A340114A1360114BA400E550BFF35F8F29
:1011400000220B4B1A6086F3108870BD0121A1406C
:101150000A4BA200D5500A4B20001A788A43054951
:101160001A70FFF753FC00212000FFF70BFCE5E7A6
:10117000280100D01510001038600540B809002083
:10118000600A0020F0B54F46D6464646C0B5070077
:101190002E4C616A0D00A66A616AA942FAD18B429F
:1011A00008D805D00120E0BCBA46B146A846F0BD3B
:1011B000B242F7D9EFF3108A72B6254801680029C8
:1011C000FCD0BFF35F8F0125BD4022491F4C8846EC
:1011D000097889462943C9B28C4641466046087061
:1011E000391D890065630A511B49B8004350216AC3
:1011F0000020294219D0616A0800A66A616A81420A
:10120000FAD18B4219D801D1B24216D8CC450BD0B5
:101210000E4B1F221D625D6301233A4093400F4A2B
:10122000136043464A461A700120BFF35F8F0022C5
:10123000074B1A608AF31088B5E70020BFF35F8F71
:101240000022034B1A608AF31088ACE70040054087
:10125000280100D0600A0020440A002080E200E05B
:10126000EFF3108C72B60A490B68002BFCD0BFF369
:101270005F8F01238340074A0748136202789A432D
:101280000270BFF35F8F00230B608CF310887047F0
:10129000280100D000400540600A002070B506001B
:1012A0000D00140000291DD0002A12D07368806838
:1012B000984762006B0012195B193168033A033BCF
:1012C000002808D08A189570C818CB5C002B0BD169
:1012D0000470280070BDCB189C7088188A5C002AA6
:1012E00005D105702000F5E753700470F1E75A70DE
:1012F0000570F7E710B583600023CCB24373013368
:10130000426004738373C4730068421C012C05D9C6
:101310000133DBB2137003329C42F9D1FF230B403F
:101320005A00D318C01800230338437010BDC046BC
:1013300070B505000C1E07D0630001681B19033B44
:10134000CB185A78002A01D1200070BD50008018B7
:101350000338091800204E78487021005870280082
:10136000FFF79CFF310004002800FFF7E1FF0600B3
:10137000002C20D00028E7D0320021006B68A8683C
:1013800098477200630092191B192968033A033BBE
:10139000002808D08A189470C818CB5C002B00D0A5
:1013A00053700670D0E7CB189E7088188A5C002AAC
:1013B00000D05A7004703400C6E7C046F8B55746EE
:1013C0004E464546DE464C00E0B5641817000268FC
:1013D000033C0500105D13190E009C46002852D0F6
:1013E000430098461B18033BD31859788A460029B6
:1013F00019D1002F0CD0EC7B002C50D063001B19AE
:10140000D318033B5E70EE73434619180339531823
:1014100000229A70002362465370F0BCBB46B2466D
:10142000A946A046F8BD49005144033952185178E5
:1014300088460021517089465970524601002800A3
:10144000FFF72CFF43468246002B07D05B0029683C
:101450004344033BCB185A78002A2CD151464246CC
:101460002800FFF71BFF0100002F1AD0A4462A68AE
:10147000EF7B9444002F04D07B00DB19D318033B8F
:101480005E70EE7310E0002FC4D0E97B002910D00D
:101490004B005B18D318033B5E70EE73BAE7EE7334
:1014A000B6E7A4462A6894440029B3D04B00984676
:1014B000AAE7EE73AEE750008018033809184878A1
:1014C000834648464870587041462800FFF7E6FEBC
:1014D000594680462800FFF72BFF414602002800AE
:1014E000FFF7DCFE8046B9E7F8B557464E4645465D
:1014F000DE46E0B5467B02687500AD19033D0F007E
:10150000515D531904009C46002953D04B00984666
:101510005B18033BD3185878824600281BD1002F54
:101520000CD0E57B002D51D06B005B19D318033B29
:101530005E70E673434658180338131800229A70F9
:1015400000236246300053706173F0BCBB46B24664
:10155000A946A046F8BD4000504403381218507800
:101560008046002050708146587052462000FFF798
:1015700095FE43468246002B07D05B00216843441A
:10158000033BCB185A78002A2CD151464246200002
:10159000FFF784FE0100002F1AD0AC462268E77BDB
:1015A0009444002F04D07B00DB19D318033B5E70FA
:1015B000E67310E0002FC3D0C07B002810D043009A
:1015C0001B18D318033B5E70E673B9E7E673B5E703
:1015D000AC46226894440028B2D043009846A9E75C
:1015E000E673ADE750008018033809184878834641
:1015F00048464870587041462000FFF74FFE594654
:1016000080462000FFF794FE414602002000FFF7CD
:1016100045FE8046B9E7C04670B5050000292CD0CC
:10162000437B8B422ED04C0000686418033C0419A5
:10163000A278002A21D053009B18033BC25CC61835
:101640008A4202D11BE0002A08D053009B18033BBA
:10165000C3185A788A42F6D162785A700023012260
:101660002800A3706370FFF7A9FE697B02002800C1
:10167000FFF714FE6873012000E0002070BD63785E
:101680003370EBE701221900FFF798FEF2E7C0463E
:1016900010B50400FFF76AF901002000FFF708FB0E
:1016A000FF232371BFF35F8F10BDC04610B5040048
:1016B000FFF75CF901002000FFF7FAFAFF23A3808F
:1016C000BFF35F8F10BDC046F8B5040006200D00C3
:1016D00000F0FEFA002844D02A4B2B49E21853426E
:1016E0005A418023DB039C469205284B62441A60D2
:1016F000274B1A6010008B689843FBD1214B254A79
:10170000E31859424B4180215B0049000620995261
:1017100000F0DEFA2900C00000F0AAFBC30921D1C5
:1017200040270121260080256162A36200232C3618
:10173000AD0135432B60062000F0CAFA3900800065
:1017400000F096FB6022E36A53400E321A40802379
:101750005B0133431A60104B236310232B600D3B56
:10176000A364F8BD0D4A934203D900230C4F0D49E1
:10177000D8E77F220240013252089F011900BF18AA
:101780001300CFE70080FCBF00C0004000E0004035
:1017900000F00040540A002001030000FEFF00009A
:1017A000C0FF3F00FFFF00002B4B2C4A70B51A60B2
:1017B0002B4A2C4B2C491A6014008B689C43FBD19C
:1017C0002A4D2B4EB54208D2013E761BB60808CDF5
:1017D000984723000134B342F9D100F01FF9254A9C
:1017E000204B1A60204A9368DB43DB01DD09002BA4
:1017F000F9D14022204B214E214C9A675A671A6733
:10180000DA66B44208D2236820000834002B1FD0C7
:10181000FFF74CFFB442F6D31A4C1B4EC022B168FE
:10182000200000F069FEB460FFF792F8FFF72EFA8F
:10183000FFF7BEFB154C164EB44208D2013E361BD4
:10184000B60808CC98472B0001359E42F9D170BDEF
:10185000FFF71EFFD5E7C04600E00040BFCDFBFE0E
:10186000FE7F3C0000F0004000C000405C0600200D
:101870006C060020FFFFFF0100F001405C06002025
:10188000540600200000002000ED00E06C0600205F
:101890007406002000BEFDE70FB400B5084883B011
:1018A00000F0CCFE049B002B07D005A91800019185
:1018B00000F08CFA034800F0C1FE00BEFDE7C04610
:1018C0002C2C00103C2C001010B50148FFF7E4FF51
:1018D000402C0010F0B557464E464546DE46E0B572
:1018E00083B017000C9A050089469A4200D971E02E
:1018F0001A0E93461E023000002359460C9A00F03F
:10190000F9FA444B6C009C466419A4006444636873
:101910008046834200D260602B1FDAB2C0239B0155
:1019200001922343012A33D9802212011A603A4BD3
:10193000AD0059599A4600294ED05346586900F0D7
:1019400097FA01300138FDD17B01E027226853402E
:101950001F408023019A5B0123431F60012A2CD979
:10196000802380229B01234312011A604346424692
:10197000636030000023594600F0BCFA53465851CA
:10198000012003B0F0BCBB46B246A946A046F0BD5C
:101990004A46012A2AD0802212011A601E4BAD004D
:1019A00059599A460029C8D17B01E0272268534043
:1019B0001F4080235B0123431F604A46216851403A
:1019C00003220A401A6001224B469A40A3681A4239
:1019D000FCD0C5E70020D4E77B01E0272268534014
:1019E0001F4080235B0123431F60B9E702321A6066
:1019F000023AA3681A42FCD07B01E0272268AD00BE
:101A000053401F408023044A5B01234392461F60DA
:101A1000D3E7C046008000407806002010B50C20B7
:101A200082B000F0AFF9FEF78BFF002810D0864B94
:101A300086488649864A186059609860D96018615E
:101A400059619861D961186259625A6202B010BD39
:101A5000804CA06700F09EF901227F4B1A60636CF6
:101A6000012BFCD103227D4B1A607A4A936B012B28
:101A7000FCD1013301217A4A7A480093043300F003
:101A80002DF90523784A00930121784800F026F9C2
:101A9000774B5A68FF2A02D8802252005A6080226F
:101AA0006E4B694C12011A602169002905D06069EA
:101AB00000F0DEF901300138FDD1E0226C4B6D48B9
:101AC00019680A40026002221968514001320A4036
:101AD000042102609A681142FCD08021664A090103
:101AE0001160802252005A60644B2361644B596834
:101AF000FF2900D85A6003220121574B1A60604A1F
:101B000093681942FCD0E023106803405D480360ED
:101B1000126803234A4002211340594A0360936824
:101B20001942FCD08021584B090119608021574B84
:101B3000490051606361564B5A68FF2A00D85960CA
:101B40008022544B12011A60E169002905D06069B6
:101B500000F08EF901300138FDD1E0234C4A1168C4
:101B60000B404D490B6080214C4B090119608021CD
:101B7000364B49005160E361494B5A68FF2A00D84F
:101B800059608022474B12011A60216A002905D052
:101B9000606900F06DF901300138FDD1E023404A61
:101BA00011680B4040490B608021404B09011960CE
:101BB00080235B0053608022244BD20223623C4B83
:101BC0005968914200D25A6080223A4B12011A6041
:101BD000616A002905D0606900F04AF901300138D6
:101BE000FDD1E023324A11680B4033490B6080215C
:101BF000324B090119608023DB025360144B63628E
:101C00002F4B5A68FF2A02D8802252005A60802245
:101C10002C4B12011A60A169002905D0606900F0FF
:101C200027F901300138FDD1E023254A11680B4026
:101C300025490B608021254B0901196080235B0039
:101C40005360124BA36101E778060020006CDC02B0
:101C50001BB70000008000403CB0004030B00040A6
:101C6000002F685900800240008C864700C0024067
:101C7000308000403090004030A00040001BB70092
:101C80003C8000403C9000403CA00040405973071D
:101C90005480004054B000405490004054A0004094
:101CA0006080004060B000406090004060A0004054
:101CB0006C8000406CB000406C9000406CA0004014
:101CC0004880004048B000404890004048A0004094
:101CD000014B8000C058704778060020F8B504001A
:101CE0000C2017001D000E0000F0C2F843011B1A63
:101CF0009901C91AC90009188901380000F0B8F81B
:101D0000069B29041B0319432368002B20DB194B76
:101D1000194DE3185A4253418022520194461B0345
:101D2000164A63441360164A13601F00AA6897435B
:101D3000FBD1C023221D9B01134321222660A060FA
:101D40001A602268002AFCDA0822E1601A60F8BDF5
:101D50003F2322681340B342D9D1A3681B051B0D52
:101D60008342D4D1EE22E368D20213408B42CED11B
:101D7000EDE7C0460040FDBF00C0004000E000406D
:101D800000F000408023024A9B000343D362704767
:101D900000800540AA23064A1B0113602F23054932
:101DA000D360054B19605368002BFCDA7047C046BE
:101DB0000040024000B0FA000060024010B5002868
:101DC00000D110BD00F0E8FBFBE7C04610B5094AA2
:101DD0000300146884B0002C08D00122009106484A
:101DE000524203A9A047012004B010BD00F026FC18
:101DF0000020F9E7100A0020BD1D00100148042151
:101E0000014B1847F00100202D1E0010142310B5BF
:101E10000100188804331B88984710BD162310B59D
:101E20000100188802331B88984710BDF8B5474653
:101E3000CE4680B50F1E19D01423994604330400F2
:101E40000025012698464B461888434621681B8882
:101E5000984701C4431E9841013540420640AF42B5
:101E6000F1D13000C0BCB946B046F8BD0126F8E754
:101E7000114A936F9B0813D210665166002905D052
:101E8000FFE7FFE7FFE7516F106F704704B50028C9
:101E900001D00020C04300F06FFE002104BDC04609
:101EA000F0B5146E556E576F166FFFF7E5FF1466A9
:101EB000556657671667F0BD000000D094464E4A3D
:101EC000926F9208624601D230E0C046F0B54A4EA9
:101ED000B56F6D08FCD3346E756E776F366F00F09A
:101EE00025F89446444A1466556657671667624655
:101EF000F0BDC0469446404A926F9208624601D2B5
:101F000058E0C046F0B53C4EB56F6D08FCD3346E5A
:101F1000756E776F366F00F04DF89446364A14664A
:101F20005566576716676246F0BDC046002B24DB36
:101F300011D000293EDA00B5C943404200D1013139
:101F400000F038F8C943404200D10131DB4352422E
:101F500000D1013300BD002AEBD1002801D10029B6
:101F600005D00020C90FC90701D1C043410800B501
:101F700000F0FAFD0022002300BD00B500290ADBB5
:101F8000DB43524200D1013300F014F8C943404210
:101F900000D1013100BDC943404200D10131DB43D2
:101FA000524200D1013300F005F8DB43524200D128
:101FB000013300BD002923D1002B18D1002A0CD0F9
:101FC000BC460D4F38667A6600210023FFE7FFE725
:101FD000FFE77A6F386F67467047002801D00748DF
:101FE000010000B500F0C0FD0022002300BD02008A
:101FF0000B00002000217047000000D0FFFFFFFF12
:10200000002B00D0BFE0130C28D1002AE7D080B409
:10201000114F39667A66FFE7FFE730B4040C7B6F37
:10202000396F1B0423433B667A66FFE7FFE7FFE750
:10203000C04684B27B6F3D6F1B0423433B667A66C8
:10204000FFE7FFE7C04600232C042D0C7A6F386FA2
:1020500000196941B0BC7047000000D0F0B594464B
:102060000025140E01D112020835140F01D11201FE
:102070000435940F01D192000235D40F01D15200E2
:102080000135D40B0134254F7C66254C3C660E0C83
:1020900093B2FFE7FFE7FFE73C6F6643360C770339
:1020A000BE467343DF0B5B04C01AB941130C734384
:1020B000DB18C91ACE086643360CB64493B2734394
:1020C0001F0F1B01C01AB941130C73431F0B1B05D3
:1020D000C01AB941860D8F023E436643360C092D66
:1020E00024DB520A7243801A7703460A6643360C91
:1020F00016235B1BDE40DF40BF1964466643821B2C
:102100007046043506330100D940A840C01900D3F9
:102110000131A24206D20023F0BD0000000000D031
:10212000FFFFFFFF121B0130F3D3F1E709277F1BED
:10213000FE406446A2B27243801A00D20139220CDA
:102140007243130C1204821A99410B007046043535
:1021500013370100F940A840801900D30131002B4A
:1021600002D1A2420AD2F0BD013000D30131121BCC
:10217000FAD2013BF8D1A24200D2F0BD013000D327
:102180000131121BF7E7F0B51C0C00D080E00CB455
:1021900000251C0A04D11B02160E33431202083517
:1021A0001C0B04D11B01160F3343120104359C0B89
:1021B00004D19B00960F334392000235DC0B02D111
:1021C00092185B4101351C00971864410134464F59
:1021D0007C66464C3C660E0CFFE7FFE7FFE7C04617
:1021E0003C6F6643360C7703BE4697B27743C01BFD
:1021F00000D20139C01B00D201399FB27743C91BFD
:10220000C91B170C77437E04FF0B801BB941CE0816
:102210006643360C0C2D33DBB644120B1F053A43D4
:102220001B0B97B27743C01B00D201399FB2774393
:10223000C91B170C77433E043F0C801BB941860D28
:102240008F023E43664329277F1BFE400C3D7746A5
:10225000AF40BF1930BCA2B2ABB272437343801A15
:102260009941220C7243130C1204801A9941020006
:102270000B000137001BA941F9D2781E0021F0BDE7
:102280000C277F1BFE4077467F0BAF40FF19E0E72E
:1022900000245D1C07D0144F7D663966FFE7FFE719
:1022A000FFE7FFE73C6F95B29EB265436643401B74
:1022B000B141150C1E0C6543664336042F0C3E439A
:1022C0002D04401BB141994204D202000B002000B2
:1022D0000021F0BD01D19042F7D3801A9941013419
:1022E0009942F2D3F6E70000000000D0FFFFFFFFA5
:1022F000132370B51D78012D15D010DD1D48FFF793
:102300008DFD1D4C01008022200000F0F5F8022D0B
:102310002DD01A48FFF77AFD194B186070BD194B84
:10232000154CA364F5E7174B134C23606360A3605F
:10233000E36023616361A361E36123626362A3627B
:10234000E36223636363A363E36323646364A3645B
:10235000E36423656365A365E36523666366A3663B
:10236000E36623676367A367E367A364D1E7054B6D
:10237000A364CEE753440000A80700204C330000BC
:102380003C0A00208923001007B5604601880A0A2C
:102390000230DF2AFAD1C9B2820804D30288408809
:1023A0000004104300E00068014A5050039007BD4C
:1023B000A80700204840414048400E4B5B68184742
:1023C0000C4B1B6818470C4A936F9B0802D2094BB1
:1023D000DB681847F0B5146E556E576F166FFFF730
:1023E000F6FF054A1466556657671667F0BD014B40
:1023F0009B681847A8080020000000D0491A002850
:1024000008D1084670470000C10FC90700D54042F7
:10241000002817D0F44603B40B4B1B68984706BC42
:1024200081409E384042803107D20B0607D04900D8
:10243000490AC0051043084360470130F8E7490ADC
:102440008902F5E7704700003C0A0020014B5B6AF7
:1024500018470000A8080020132310B512481C7864
:10246000FFF7DCFC0100012C0AD003DD80220F48BD
:1024700000F042F80E48FFF7C9FC0E4B186010BD83
:102480000A4C5422200000F037F80B4B6365A3651B
:10249000E36523666366A366E36623676367A367F2
:1024A000E3672362E361E5E753460000A8080020E4
:1024B0004C3300003C0A0020BD24001007B56046E4
:1024C00001880A0A0230DF2AFAD1C9B2820804D38D
:1024D000028840880004104300E00068014A505020
:1024E000039007BDA808002001480421014B1847AC
:1024F000000200202D1E0010014B5B6818470000F1
:1025000000020020F0B5C64600B5437C07000D0070
:102510001600002B38D0002A2EDD00216A1E9046BE
:102520006A5C037C4C1C00200A2A0CD0A64216D000
:1025300043461B5D21000D3B5A4253416A5CDBB2AE
:102540004C1C0A2AF2D1002BF0D1814217DC022167
:1025500010483B689847A64207D02000E8E786422B
:1025600003DD311A3B6828189847AD19013D2B78D7
:102570000D3B5A4253413B7480BCB846F0BD091A2A
:102580003B6828189847E2E703681100280098473D
:10259000F2E7C046AC2C0010F0B5CE46474680B5F9
:1025A00083B06B46DE1CD02330701B061C68204BAA
:1025B000804601A91800994600F0E6FA071E20D0CF
:1025C0001C4B1C68002C29D01B4D02E0E468002C39
:1025D0000FD02368002BF9D02B68002B01D0A34229
:1025E000F4D1200001223100FFF78CFFE468002CB9
:1025F000EFD1002F12D1404603B0C0BCB946B0465F
:10260000F0BD019B64B29C420CD0484600F0C4FA75
:10261000084B1C68002C01D00127D5E7484600F084
:102620009BFAE8E7034B1C68002CCDD1E3E7C046DA
:1026300054060020080A00200C0A0020F0B5DE46EF
:1026400045464E465746E0B583B0060000F0ECF92B
:10265000D0231B061C68304B050001A918009B46BF
:1026600000F092FA804600283DD02C4B1C689A4618
:10267000002C47D00A232A4F994602E0E468002C38
:1026800017D02368002BF9D03B68002B01D0A34260
:10269000F4D120002A003100FFF734FF6B464A4690
:1026A00020001A7101A90122FFF72CFFE468002C19
:1026B000E7D14346002B25D153461C68002C06D099
:1026C0006368002B0BD09847E468002CF8D12800F1
:1026D00003B0F0BCBB46B246A946A046F0BDE468D4
:1026E000002CEDD1F3E7019B64B29C420ED058461A
:1026F00000F052FA094B1C689A46002C02D00123C4
:102700009846B7E7584600F027FAD5E7034B1C6810
:102710009A46002CAED1DAE754060020080A0020C1
:102720000C0A00200A4A1368002B05D10CE01A009D
:10273000DB680C32002B07D09842F8D1002902D177
:10274000C3681360C16070470029FCD01060FAE7CD
:10275000080A002010B500F043F810BDF0B50029BC
:1027600015DD0E4B0D271A680D4B0E4CD3185D422C
:102770006B41451820215B001E5F0478A64207D0FC
:1027800093691942FCD101301460A842F5D1F0BD23
:1027900093691942FCD11760F2E7C046580A00203D
:1027A0000080FCBF540A002030B50500002912DD6E
:1027B00000201024094B013D1A6893691C4208D17E
:1027C000013093691C42FCD113682B548142F4D12F
:1027D00030BD0028FCD103204042F9E7580A002010
:1027E000E12110B50B4B0C481B780C4B49021B78B0
:1027F0000B4B1860FEF768FF02210020FDF7E4FF95
:1028000002210120FDF7E0FF01210648FFF78AFFC2
:1028100010BDC0464C2D001000400340482D001054
:10282000580A0020100200200B4B10B59C46604453
:1028300043425841094A840082B00092084822006D
:10284000E31CFEF72FF8844202DC001B02B010BD2F
:1028500001204042FAE7C0460000D0AFF02C001043
:102860005E0A0020F0B5DE4657464E46454688468D
:10287000E0B583B006000524FDF7DCFF43461F7971
:102880001C57314B8246F3185A4253419B009C46D9
:102890002E4A1300934662469B5801229946BA403D
:1028A0002023013ADB1B002C36DB9C4246DCA24095
:1028B0004B46134242D10192002F1CD04246434660
:1028C00052781B7812021A4343469B7880251B04DA
:1028D00013434246D078002200061843AD0153004E
:1028E000C15AA94200D20919A31812339B00013220
:1028F0009951BA42F3D34D46019B62461D435B4654
:1029000050469D50FDF7A2FF200003B0F0BCBB462F
:10291000B246A946A046F0BD002B0FDB1100484689
:1029200099401C000191014206D1C5E715004946B6
:102930009D401C00294204D0013BF7D20448FEF719
:10294000ABFF0195B8E7C0460000D0AFB00900204A
:10295000142D0010F0B501258D400468AC430460CF
:10296000002B30D04D006C18E400041926001F68BD
:10297000C83637605F68DC3477609F68DB68B760B3
:1029800023606B18DB001D008024D03545196401DD
:102990002C4380252D0625602560144C0D1D8C4090
:1029A000846001242700AF403D0008318C401F2186
:1029B00006680A403543056005682C430460C0186A
:1029C000D8300260F0BD4D006C18E40004192600F8
:1029D0008027C8367F023760F8277F027760C027DC
:1029E000DC343F03B7602360CBE7C046010101013F
:1029F00010B5010000230022002000F043F810BDB4
:102A000070B5074C074D641BA41005D0013CA30012
:102A1000EB589847002CF9D100F09AF870BDC046E9
:102A2000740600207406002010B583070AD0030046
:102A3000032102E001330B4205D01A78002AF9D1B4
:102A4000181A10BD030019680C4A0D4C8A188A43E5
:102A500022420FD15968094A04338A188A43224214
:102A600008D15968054A04338A188A432242F1D0B2
:102A700000E001331A78002AFBD1E1E7FFFEFEFEF9
:102A800080808080F0B5D6464F4646469846264B15
:102A9000C0B50600186891469A460F0000F054F839
:102AA000A422224B52001B689D58002D32D0534661
:102AB0006C6818681F2C32DC002E0CD1631C0234A9
:102AC000A4006B60675100F041F80020E0BCBA46FA
:102AD000B146A846F0BD49468822A300EB1899509C
:102AE000C42149008C46AC446146873AA24009683B
:102AF00091461143624611608421424649005A5072
:102B0000022EDBD129004A468D31FF310B68134379
:102B10000B60D3E71D004D35FF359D50C7E700F032
:102B200015F801204042D1E750060020282D001062
:102B3000034B10B5002B02D00248FFF759FF10BD20
:102B400000000000012A00107047C0467047C046D0
:102B5000F8B5C0460000000001B40248844601BC3C
:102B6000604700BF4901002001B40248844601BC0F
:102B7000604700BF7101002001B40248844601BCD7
:102B8000604700BF7101002001B40248844601BCC7
:102B9000604700BF0901002001B40248844601BC1F
:082BA000604700BFC1000020E6
:102BA80053797374656D20636C6F636B206F662057
:102BB8002575206B487A2063616E6E6F742062659C
:102BC8002065786163746C792061636869657665EE
:102BD80064000000E42B001005FF00004AE0C0205C
:102BE800810001C000000000F82B001008FF000061
:102BF8000140E6A021604160A600000000C000007E
:102C0800486172647761726520616C61726D20251C
:102C18006420616C726561647920636C61696D65BB
:102C2800640000000A2A2A2A2050414E4943202ADB
:102C38002A2A0A000A00000048617264206173733E
:102C48006572740052656C6561736500626F6F74BC
:102C5800325F77323571303830000000312E342E33
:102C6800300000007069636F00000000626C696EDC
:102C78006B0000004A616E2020362032303233006B
:102C880006005250D3F075424C2C001006005250EA
:102C9800E182887F542C001006005250BBFF3CB6DE
:102CA8006C2C00100D0A00005541525420737464B6
:102CB800696E000055415254207374646F75740036
:102CC8005541525420737464696E202F20737464C4
:102CD8006F7574000600525053B4F4A1C82C00104C
:102CE80008005250920000004E6F2050494F207348
:102CF80074617465206D616368696E6573206172C3
:102D08006520617661696C61626C65004E6F207048
:102D1800726F6772616D20737061636500000000F7
:042D2800280200205D
:102D2C00882C0010942C001090020010A02C001085
:102D3C009C020010A8020010B4020010E82C001035
:042D4C00DC2C00106B
:102D5000D02330B500251B0600245D5706E003682C
:102D6000BFF35F8F1C6081F3108820BF0268EFF310
:102D7000108172B61368002BFCD0BFF35F8F03790C
:102D80007F2BECD905710368BFF35F8F00221A60B7
:102D900081F3108830BDC04603000068EFF3108C4B
:102DA00072B60268002AFCD0BFF35F8F04229A56E5
:102DB000002A04DB002900D00A60002004E0D022B1
:102DC0000120120612681A711B68BFF35F8F002280
:102DD0001A608CF3108870470268EFF3108172B6A6
:102DE0001368002BFCD0BFF35F8FFF2303710368D0
:102DF000BFF35F8F00221A6081F3108840BF7047D5
:102E00007047C046100000000000000000000100F4
:102E100000000000000000000000020000000000B0
:102E2000000000000000030000000000000000009F
:102E30000000FF000000000000B5486801318E4628
:102E40000047704609380149884700BDD90B00107A
:102E5000D801002000000000A0060020C8090020C2
:102E60000000000000000000D80900200000000061
:102E70000000000010000000000000000000000042
:102E8000503300004C330000543300005233000034
:102E90004D5300004D430000533400004334000004
:102EA0005D27001000000000A927001000000000AE
:102EB00000010000000000000000000014050020D8
:102EC0007C050020E4050020000000000000000058
:102ED00000000000000000000000000000000000F2
:102EE00000000000000000000000000000000000E2
:102EF00000000000000000000000000000000000D2
:102F000000000000000000000000000000000000C1
:102F100000000000000000000000000000000000B1
:102F200000000000000000000000000000000000A1
:102F30000000000000000000000000000000000091
:102F40000000000000000000000000000000000081
:102F50000000000000000000000000000000000071
:102F600001000000000000000E33CDAB34126DE60E
:102F7000ECDE05000B000000000000000000000077
:102F80000000000000000000000000000000000041
:102F90000000000000000000000000000000000031
:102FA0000000000000000000000000000000000021
:102FB0000000000000000000000000000000000011
:1032E000AC0900200000000000000000E9240010EC
:1032F000FD1D0010F122001059240010312B001088
:04330000C5020010F2
:04000005100001E9FD
:00000001FF
